:020000040000FA
:100000000301831606309F00FF308500FF30870014
:10001000831203018316860188018901831200304F
:10002000A000A100B000B100B4000030B200B300E5
:100030000A30A200A3000130B40089009828862865
:1000400064285A20051C25282828851C1E283C28A1
:1000500005182828B60AA00AA20B1E282F285F2000
:10006000A10AA30B1E2834280030A000A100B6006E
:100070000A30A200A3001E2885183C28B6032008D9
:1000800003194528A20AA0031E2821080319512894
:100090004C20A30AA1031E280930A0000130A200B1
:1000A00008000930A000A1009930B6000130A2007C
:1000B000A3001E28210886002008880008000030C0
:1000C000A0000A30A2000800071C67287628871CB9
:1000D00021287E28871C6D287E28071D79281E2848
:1000E000071C73287628071D81281E2807187628E4
:1000F0006A283008880031088600762887187E280C
:10010000702832088800330886007E28051D2028C4
:100110008928051989283008B2003108B300200861
:10012000B0002108B1003708B8003608B700202811
:10013000851D9B289E28851E1F28AD2885199E2871
:10014000B40BA328A8280130B400013089001F286F
:100150000030B400023089001F28851AAD28B40B86
:10016000F628B2280130B4006330B9003008B50079
:100170003208B5073108D4000319C2280A30B50780
:10018000D40BBE283308D4000319CA280A30B50797
:10019000D40BC6283508B9020318CF28D028DA288E
:1001A000D2281E283008B2003108B3000930B00050
:1001B000B1001E280030D000D1000A30D200D30098
:1001C000E420B50BE028ED28D00AD20B080000305F
:1001D000D0000A30D200D10A08003008B20031083D
:1001E000B3005008B0005108B1001E280030B40020
:1001F0003008E0003108D400031902290A30E00772
:10020000D40BFE283208E1003308D40003190C296E
:100210000A30E107D40B08296008E2006108E30016
:100220006108E0020318152916291F29172930082B
:10023000B2003108B3000030B000B1001E28003019
:10024000D000D1000A30D200D30063086202B500AA
:0E02500035080319ED28E420B50B2B29ED2805
:02025E0000346A
:02026000003468
:02400E003A373F
:00000001FF
